:020000021000EC
:10B00000004000204DD601008DD601008FD60100F2
:10B010000000000000000000000000000000000030
:10B0200000000000000000000000000091D60100B8
:10B03000000000000000000093D6010095D601003A
:10B04000F1C0010097D6010021CA010097D6010086
:10B0500097D601000000000041C5010097D601000D
:10B0600097D6010097D6010097D6010097D6010028
:10B0700097D6010097D6010097D6010097D6010018
:10B0800097D6010015B7010097D6010097D60100A9
:10B09000F1B7010097D6010021D9010097D6010030
:10B0A00097D6010097D601000000000000000000C4
:10B0B0000000000000000000000000000000000090
:10B0C0000448054B10B5834203D0044B002B00D03D
:10B0D000984710BDF8180020F81800200000000064
:10B0E00006480749091A8B10C90FC91810B549102D
:10B0F00003D0044B002B00D0984710BDF818002057
:10B10000F81800200000000010B5074C2378002B31
:10B1100009D1FFF7D5FF054B002B02D0044800E012
:10B1200000BF0123237010BDF818002000000000AC
:10B1300008DC0100054B10B5002B03D0044905487D
:10B1400000E000BFFFF7CCFF10BDC04600000000CC
:10B15000FC18002008DC0100402292029A1A924654
:10B160007047C046154B002B00D1114B9D46FFF791
:10B17000F3FF00218B460F461148124A121A00F0C5
:10B1800079F80C4B002B00D098470B4B002B00D0CC
:10B1900098470020002104000D000B4800F016F82D
:10B1A00000F046F82000290001F008FF00F016F832
:10B1B0000000080000000000000000000040002027
:10B1C000F8180020F41B002009B2010010B501009E
:10B1D00000230022002000F0A1F810BD084B10B59C
:10B1E0000400002B02D0002100F000F9054B186884
:10B1F000836A002B00D09847200000F075F9C04604
:10B20000EDB3010070DB010070B5074D074C641B06
:10B21000A41005D0013CA300EB589847002CF9D1AD
:10B2200002F0A0FC70BDC046F4180020F818002001
:10B2300070B50C4D0C4E761BB61005D0002408CD11
:10B2400001349847A642FAD102F086FC074D084E19
:10B25000761BB61005D0002408CD01349847A642CD
:10B26000FAD170BDF0180020F0180020F01800206E
:10B27000F4180020F0B50500830749D0541E002AB9
:10B2800045D003000326CAB202E00135013C3ED39B
:10B2900001332A703342F8D1032C30D9FF220A40FF
:10B2A000150215432A0415430F2C34D92700103FEB
:10B2B0003F093E01B4461E001A0010366644156070
:10B2C00055609560D5601032B242F8D101373F0128
:10B2D000DB190F270C22274022403C00002A0ED009
:10B2E0003E1FB608B400A4461A001C1D644420C2C8
:10B2F000A242FCD103240136B6009B193C40002C2D
:10B3000005D0C9B21C19197001339C42FBD1F0BDA4
:10B3100003001400C0E72700E2E7C046F0B54F463F
:10B320004646D646C0B598462C4B06001D680F0011
:10B33000914682B0002D27D06C681F2C4ADC002E6D
:10B3400016D08823E8589A4600282FD07833C15861
:10B350004A46A300C3181A600122A2401143914635
:10B36000802252008150802142465A50022E16D02F
:10B370000020631C0234A4006B60675102B0E0BC83
:10B38000BA46B146A846F0BD154D1D60154B002BC1
:10B39000D2D01B6801938823019AEA50CCE782231C
:10B3A00049465B00C2581143C150E1E70E4B002BE8
:10B3B00010D08420400000E000BF00280AD0802286
:10B3C00000235200835004328350534600216C689E
:10B3D000E850BDE701204042D0E7C046A019002058
:10B3E000141900200000000000000000F0B5DE4647
:10B3F00057464E464546E0B53A4B85B09A461B68DF
:10B4000089469B460390002B55D05B4688229B586B
:10B4100098465B465E68741E4DD443461F36B600A0
:10B4200035009F194B46803E4644783DB1465D4409
:10B430005E469B460DE04346002B02D03B685B45D1
:10B440000AD004235B429C46043F043DE144013C96
:10B4500031D35B46002BEED173682A68013BA342CF
:10B460003AD000232B60002AEBD073680193434647
:10B47000002B27D0012380204146A34040000958DB
:10B48000029119421ED08220414640000958029183
:10B49000194223D14B460398196890477368019A63
:10B4A000934214D153461B68B342CAD0D9469B4637
:10B4B0005B46002BA9D105B0F0BCBB46B246A946FD
:10B4C000A046F0BD90477368019A9342EAD0534674
:10B4D0001B68D9469B46EBE77460C4E74B46186887
:10B4E0009047DBE7A0190020FEE7C046F8B54546C7
:10B4F000DE4657464E46E0B5234B1978984600295C
:10B5000029D0224B002401259946214F214E03E0EA
:10B510000134E4B28C421ED23A68E300D01882466D
:10B52000D05C2A00824033681A42F1D093433360E2
:10B5300000F0FCFF53461A782B00494693400968F7
:10B540000B40010091408B420BD0434601341978E7
:10B55000E4B28C42E0D3F0BCBB46B246A946A0465A
:10B56000F8BD53465B689B46002BEED051464978A8
:10B5700001390B0059425941081A41424841C1B2B0
:10B580001000D847E1E7C046A4190020CC190020DC
:10B59000D4190020D0190020F8B5124E0400300054
:10B5A00000F0D0FC002807D10125A5400E4F3B68D4
:10B5B0001D4202D0AB433B60F8BD200000F0B6FF57
:10B5C0000A4A136800280BD1AB4313603B68002282
:10B5D0001D43074B300019683D6000F053FCEBE75A
:10B5E0002B43F2E7AC190020D0190020CC19002021
:10B5F000A8190020F0B5CE46474680B506000D00DC
:10B60000140083B0042A36D900F068FE00282DD03B
:10B610001D4B1E4A1E601E4B1D701E4B1C600023DE
:10B6200013601D4A6C1E1360E4B2002D25D01B4B25
:10B63000E4009946032300279846341901AD04E03D
:10B640002300083BA64218D01C0043462B70A37869
:10B650004A46290020786F806B7000F049FE002870
:10B66000EED003B0C0BCB946B046F0BD00F002FE5B
:10B670000028CDD0F5E70720F3E70021084A094864
:10B6800000F0EAFBEDE7C046D4190020CC190020F9
:10B69000A4190020A8190020D019002099B5010094
:10B6A000EDB4010074DB010070B5094D2B78002B5F
:10B6B0000BD00024074E3268E300985C012100F0B3
:10B6C000D9FE2B780134A342F5D8002070BDC046C6
:10B6D000A4190020D4190020002300B585B001AAC8
:10B6E0009060002103481380536000F005F805B016
:10B6F00000BDC04601400000BFF34F8F034B044A1A
:10B70000DA60BFF34F8FC046FDE7C04600ED00E0B2
:10B710000400FA05A021F0B50023C6462B4A4900D3
:10B7200000B5535004315350043153500431535039
:10B730004C39535004315350254B1B68002B35D0E6
:10B74000244900265458244A244F1268A41A00227F
:10B7500024029046240A02E0002D18D02B001A681B
:10B76000A24214D8A41AB6181A7CDD69002AF3D0B4
:10B77000424699691A745A693B68002B19D0100027
:10B7800098470028E8D0FFF7A7FF002DE6D114491D
:10B79000144A0B7812789A420ED0134A9B009E509E
:10B7A00080218023114A5B004903D15080BCB846F8
:10B7B000F0BD08009047CFE70132D3B2022B01D091
:10B7C0000B70EAE700230B70E7E7C046001001406A
:10B7D000F819002004050000F4190020D8190020F1
:10B7E000F1190020F0190020E819002000E100E024
:10B7F000F0B54546DE4657464E46E0B5CB4BCC4A03
:10B800001B68CC499846CC4B8DB01B6809780793D0
:10B810001378994200D167E10133DBB2022B00D1EA
:10B8200060E11370C54A9B009C5843461B191B02DC
:10B830001B0A9B465A46BD4B1A60C14B09931E78A2
:10B840005B780393B34200D15BE101230493099B2E
:10B8500059465A689B7892460193BA4B00250A9341
:10B860001B785746089305930023A446B1460B91D5
:10B87000079A3100039E069302934B005B18DB008E
:10B88000F818824601310198C9B2081A441EA04135
:10B89000FB5C40420140022B00D1B8E0032B07D1F2
:10B8A000002A05D01574D269002AFBD10123069322
:10B8B000B142E2D1029BBA4664464E46002B00D00C
:10B8C000C6E1069B002B08D09B4B1A60079B079292
:10B8D0009B1A591E8B41DBB20693049B0025002B5B
:10B8E00000D017E100239C46079F02930593002D8B
:10B8F0002FD028006968AB68ED695A46924C8A1AC5
:10B900001202120AA24256D8D3180360624642605D
:10B910008260012202746246C261002F67D03C68D7
:10B920003A009C425CD2A846814603E011689942E5
:10B9300061D20C001500D26918001B1B002AF5D13A
:10B940004846A946454603604B46C261D861002D72
:10B95000CFD1039B9E4200D126E1514673009B1933
:10B96000019A0136F6B2B21A501E8241DB00CC18A1
:10B97000CB5C52421640012B66D16068027C002AE3
:10B9800062D18A46A16890464160E368836022697B
:10B99000C2606269089C826101220592002CACD0D1
:10B9A0004246002142605A4605948A1A664C1202A9
:10B9B000120AA242A8D95A46511A0902090A994202
:10B9C00002D25B1A0360A1E76346036043608360B1
:10B9D000012303746346C361002F08D000233C6831
:10B9E000E31A3B600123C761029307007FE701234D
:10B9F000070002937BE704912900454680464846AC
:10BA00008946049909194446091B11609BE753466E
:10BA10005868002A00D14BE7904200D129E1130079
:10BA20001C00DB69002B00D142E79842F8D1A0420C
:10BA30004CD01868DB698246E361002B00D137E700
:10BA400018685044186033E7039BB34286D11A004C
:10BA5000099B1A70029B002B00D19FE0364B1F60A0
:10BA6000079B9F4202D1069B002B25D0002F00D1BF
:10BA700008E1364A3648374C81585A468A1A12022B
:10BA80002578120A3B680332002D00D193E09342DF
:10BA900026D3A8245B442E481B021B0A2B4DE4002E
:10BAA000035142595B1A521A1202120A1B02033244
:10BAB0001B0A9A4200D9A4E000230A9A13700DB021
:10BAC000F0BCBB46B246A946A046F0BDD269002AEA
:10BAD00000D1B1E003689A46C36901200690AFE740
:10BAE0001300D6E700239CE6154B09931E785B787C
:10BAF00003939E4200D1F9E00023C346002404933F
:10BB0000A5E6099B5A689B78924601930D4B0A93D0
:10BB10001B780893079B002B00D1F5E000224746D5
:10BB20000021002500209446B04629E0F4190020A9
:10BB3000F0190020F1190020F8190020E819002060
:10BB4000DC190020E4190020FEFF7F00040500003E
:10BB500000100140E5190020A41A80186246DE6832
:10BB60001A60DA69002E06D0DD611D00391809025D
:10BB7000090A59609E600121002A00D171E013007A
:10BB80001A68A242E8D94646002902D060490793C4
:10BB90000B60121B1A6001230693A3E6069B079F06
:10BBA000002B00D188E761E7059B002B00D151E70E
:10BBB000099B1E704EE78025D1266D02B600855187
:10BBC000403E8551C0278026524DB6027F00EE517F
:10BBD0002E60012505605048504F06682F20C04652
:10BBE000C046C046C046C046C046C046C046BE422B
:10BBF00000D0C0460138F2D12570934200D348E707
:10BC00006EE7435945490351434B1A682F23C046F9
:10BC1000C046C046C046C046C046C046C0468A422E
:10BC200000D0C046013BF2D180238021394A5B001D
:10BC30008902D15040E7140001220020384B9A605D
:10BC40000B90013006922300002202900590F0E64E
:10BC50000A99059B33480B700B9908938B4601603A
:10BC60002FE62B4B46461A600023079301330693B9
:10BC700038E6D0690028DED013001400020001204D
:10BC80000690D6E680218023224A8902D150802363
:10BC9000D2210124224A5B0289005350403953507B
:10BCA0001D4B546019682F231C481D00C046C04618
:10BCB000C046C046C046C046C046C046814200D0CD
:10BCC000C046013DF2D19460164A1760C046C04696
:10BCD000C046C046C046C046C046C046814200D0AD
:10BCE000C046013BF2D1104B1F70E5E6099BC346ED
:10BCF0005A689B78924601930C4B00250A931B7857
:10BD0000089300230693EDE5012300250693E9E55A
:10BD1000F819002000E100E0EC1800200024F400F5
:10BD200000100140F4190020E5190020E41900205A
:10BD3000F0B5DE4657464E4645460324E0B50700BB
:10BD400020009B461040224200D068E0002A00D12B
:10BD500065E080268025334CB6026651D2238026CA
:10BD6000314D76029B00EE50403BEE5001232F4EAA
:10BD70006B60994633682F269C462D4B98463300BE
:10BD8000C046C046C046C046C046C046C046C04683
:10BD9000C44500D0C046013BF2D14B46AB60C04623
:10BDA000C046C046C046C046C046C046C046C44560
:10BDB00000D0C046013EF2D15B461E4E30701E4E92
:10BDC000336000261D4B188099705A601C4B8022EE
:10BDD00018601C4BC5211E701B4B52031E70C023E4
:10BDE000FF265B00E25089006358B3433F3E334374
:10BDF0006350A123DB0022600439EF506358134ADB
:10BE00001A40C0231B0213436350114BEA58114BD5
:10BE10001A60F0BCBB46B246A946A046F0BD07205A
:10BE2000F7E7C04600E100E000100140EC180020F8
:10BE30000024F400E5190020D8190020DC190020A6
:10BE4000F8190020F0190020F1190020FF00FFFF71
:10BE500004050000F4190020094B5B68002B0AD090
:10BE6000002A0AD0002808D00368187C002802D1D4
:10BE700059745A6170470820FCE70720FAE7C0466A
:10BE8000DC190020F0B5C64600B52A4F04007B68D7
:10BE90000E00904682B0002B41D000283FD00429EC
:10BEA00045D94369002B3AD0457C6A46013D6B4237
:10BEB0005D410023D01D6D42D3710D4000F086F826
:10BEC0007878B978421CD2B2891A4B1E99413B78D6
:10BED00049420A40934224D0796843008C461B189B
:10BEE000DB006344002B1CD0012113481970134957
:10BEF0005C604158DE60996041461D6159616B4646
:10BF0000D8797A7000F082F88023802100200C4AD2
:10BF10005B004903D15002B080BCB846F0BD082098
:10BF2000F9E76B46D87900F071F80420F3E70720B1
:10BF3000F1E7C046DC1900200010014004050000B4
:10BF400000E100E030B51F4D04006B6883B0002BAA
:10BF500030D000282ED04369002B2BD000236A4616
:10BF60000374D01DD37100F031F86978AB784A1CA6
:10BF7000D2B29B1A581E83415B421A402B789342DF
:10BF80001AD04B005B186968DB008C466344002BB9
:10BF900012D002215C6019706B46D8796A7000F08B
:10BFA00035F8802380210020074A5B004903D150E7
:10BFB00003B030BD0820FBE76B46D87900F026F8C7
:10BFC0000420F5E7DC19002000E100E0F0B5EFF314
:10BFD000108172B60A4B5A68002A0DD101248025BF
:10BFE000084E5C607459084F3C401C6077510270E9
:10BFF000002900D162B6F0BD01230370F8E7C04606
:10C00000FC19002000E100E0FC06FFBC10B5084B65
:10C010005A68002A0BD0002809D1EFF3108272B6BB
:10C0200004491C680C605860002A00D162B610BD3B
:10C03000FC19002000E100E0A0220120024BD20503
:10C04000D358DB099843704704050000A0228021E3
:10C05000014BD205D15070470C050000A022A1234E
:10C060008021D205DB00D1507047C046A022A12319
:10C070008021D205DB00D1507047C046A02280212C
:10C08000014BD205D15070470C050000A02210B51D
:10C09000064BD205D15880231C00A1208C430B40B5
:10C0A0000349C0001450535010BDC04604050000A1
:10C0B0000C050000A0230321034ADB059950A122AF
:10C0C0007D31D200995070471C070000052809D027
:10C0D000062809D0072809D0083843425841800073
:10C0E000013870470020FCE70120FAE70220F8E75A
:10C0F00010B51A4B1A68002A14D0002280211A6049
:10C10000C2220123164CC90592008B506370A368AC
:10C11000002B07D01A6800205B68A2609847A368CC
:10C12000002BF7D10F4B1A68002A15D000221A6095
:10C130008022C22302219B00D205D1500123084C4A
:10C14000A3702369002B07D01A6801205B68226165
:10C1500098472369002BF7D110BDC046000100406D
:10C16000041A00200401004010B500280BD1064C31
:10C17000A368002B07D01A6800205B68A26098476C
:10C18000A368002BF7D110BD041A002010B582B0AF
:10C190006A460023D01DD371FFF718FF144C237893
:10C1A000002B0AD0E3680133E3600123A3706B46E0
:10C1B000D879FFF72BFF02B010BD6360A360236145
:10C1C000E3600C4B1B68DB070CD501F055FB002826
:10C1D00005D18022A3230121D205DB00D150012308
:10C1E0002370DFE70321002000F006F8EDE7C046EA
:10C1F000041A002000E100E0F0B500281EDB1B4B14
:10C2000084089C460323C2B21840FC331F00C0269A
:10C21000C000890187400B408340A4006444B600FD
:10C22000A559BD432B43A3511F231A40C0211E3BD8
:10C2300093400E4A490053501360F0BD0C4C032547
:10C24000A4460F23FF240340C2B228402500C000AB
:10C25000890185400C408440083B9B089B00634457
:10C26000DE69AE433443DC61DEE7C04600E100E056
:10C2700000ED00E070B54425154C665D002E25D11B
:10C2800001225242D3172260636001235B420321E3
:10C290000620A360E36023616361A361E36123621D
:10C2A0006362A362E36223636363A363E363236460
:10C2B000FFF7A2FF074B80211E60C123064A9B00A7
:10C2C0000906D15001230020635570BD0820FCE70A
:10C2D000181A00207C610040006000404423034A9B
:10C2E000D05C431E9841C0B27047C046181A002067
:10C2F000F0B5CE46474680B55B4C03002518203587
:10C300002E7808207F2E03D8C0BCB946B046F0BDB9
:10C31000C878814600286FD12069013000D19DE0A6
:10C320006069013000D190E008250627B800265842
:10C33000013628D0781C8446A8427DD28000265839
:10C3400001367BD0B81C8446A84275D2800026589E
:10C35000013673D0F81C8446A8426DD2800026585E
:10C3600001366BD0381D8446A84265D2800026581D
:10C37000013663D005370420AF42C5D2E5690135E7
:10C38000C2D107271830E618B4462026B046C44468
:10C39000664622504A467DB23570002A02D1E7191E
:10C3A0003C373B708A78002A2FD0A020C0058446F5
:10C3B000E02602279A006244F6009059B843905153
:10C3C000CA78002A2DD0294AA2209446AC00C00089
:10C3D00064442258264D09782A4022501A02F82334
:10C3E0005B011A400B04C021890225580B401A43F7
:10C3F0002A432250002087E72068013020D060685F
:10C40000013028D00425022790E71A00A02648789A
:10C41000C132FF3292008000F6059051CA78002A9E
:10C42000D1D12B1F5BB2E41840340B7822789B01EA
:10C4300013430020237067E7042065E76746A2E7FF
:10C440000020226028700025ACE705200527287011
:10C4500062610525A3E70127042094E704272261F0
:10C460002F703D009BE7C046181A00200060004076
:10C47000FFE0FCFF0023F0B5294C22182032D356F0
:10C48000032B20DD043B5BB2E31840331B789B0990
:10C49000032B3AD0013B5A425341C02292029446A8
:10C4A0005B421B0C1B046344A022D2059446E0228D
:10C4B00080006044D20081581A4C2140815081583C
:10C4C0000B438350F0BDD8B20328FBD8164DA227EA
:10C4D000AC46012698006044FF00C5593543C5515C
:10C4E000180065460027403040B2800080B24751B6
:10C4F0000029E7D0127852B292001259002AE1D0F6
:10C500009E40C1239B00EE50DCE7A022A223D2056F
:10C51000DB00D2580123C240134002331B04C3E79F
:10C52000181A0020FFFFFCFF00600040A022A22399
:10C53000D205DB00D358C340012018407047C046E5
:10C54000F0B55746DE464E4645460021E0B5C74A9F
:10C5500087B0039113680027012B00D194E1C44BED
:10C560001A68012A00D174E1C24B1A68012A00D16D
:10C5700063E1C14B1A68012A0DD0C04B1A68012A29
:10C5800000D18CE1002F1ED107B0F0BCBB46B246F3
:10C59000A946A046F0BDC122B94992008958082297
:10C5A0000A42EAD000211960B44B17431A68012AE5
:10C5B00009D11960A022A223D205DB00D35803932E
:10C5C00080231B061F43A223DB0099460323AD4CA7
:10C5D0009B461C33A046012600259A463E4211D0B8
:10C5E000A74AAB0094464A46634498589958434634
:10C5F0001B68002B06D05A46090C11405246000A0F
:10C600001040984704239C4601357600E044042DF1
:10C61000E4D1002FB8DA0023C02607250493013B9C
:10C6200005934023E1564B1C3ED0C9B20800B043ED
:10C63000C3089C462A00012367460A40934005AA86
:10C64000D25D134230D08A099346221820321278E4
:10C6500052B29200A2589146002A00D1A5E15A4652
:10C66000032A00D1A5E1A027FF05B8468200904427
:10C67000E0224746D200BA5803AF9203910F6246B8
:10C68000BA5C13420DD002290ED15B46032B00D1B8
:10C69000AFE1002398464B46002B07D05946C847C8
:10C6A00004E0032900D18DE1002398464123E1569F
:10C6B0004B1C38D0C9B20800B043C3089C462A00BE
:10C6C000012367460A40934005AAD25D13422AD04F
:10C6D000221820321278890952B29200A258019190
:10C6E0009146002A00D13CE1032900D13CE1A0277A
:10C6F000FF05BA4682009244E0225746D200BA585B
:10C7000003AF9203910F6246BA5C134200D10CE171
:10C71000022908D1019B032B00D16EE14B46002B6F
:10C7200001D00199C8474223E1564B1C38D0C9B209
:10C730000800B043C3089C462A00012367460A400C
:10C74000934005AAD25D13422AD0221820321278D3
:10C75000890952B29200A25801919146002A00D153
:10C7600017E1032900D117E1A027FF05BA4682008F
:10C770009244E0225746D200BA5803AF9203910F79
:10C780006246BA5C134200D1B3E0022908D1019B92
:10C79000032B00D135E14B46002B01D00199C8474E
:10C7A0004323E1564B1C37D0C9B20800B043C3083D
:10C7B0009C462A00012367460A40934005AAD25DA1
:10C7C000134229D0221820321278890952B29200DD
:10C7D000A25801919146002A00D1CEE0032900D150
:10C7E000CEE0A027FF05BA4682009244E0225746D9
:10C7F000D200BA5803AF9203910F6246BA5C13425B
:10C800005AD0022908D1019B032B00D1FDE04B46F1
:10C81000002B01D00199C8474346002B00D1B3E655
:10C82000A022A223D205DB00D358039A9A4200D15A
:10C83000AAE60393049B0593F3E6C12210499200F4
:10C84000895804220A4200D193E600211743196057
:10C850008FE6C1220A499200895802220A4200D179
:10C8600082E60021174319607EE6C0460061004061
:10C8700004610040086100400C6100407C610040A0
:10C8800000600040181A0020C1201F00614C800089
:10C8900020580740034200D161E611605FE60022A4
:10C8A0001A60A022A223D205DB00D3580393002FE5
:10C8B00000D085E6584CAEE60329ADD1019B032B91
:10C8C000A5D180239B029C46E0235246DB00D25830
:10C8D00052490A405146CA50CA5861460A43514615
:10C8E000CA504B46002B9BD043460133DBB29846DF
:10C8F00090E7032900D053E7019B032B00D04AE7C0
:10C9000080239B029C46E0235246DB00D2584349D9
:10C910000A405146CA50CA5861460A435146CA5055
:10C9200043460133DBB2984635E7032900D0FAE6E7
:10C93000019B032B00D0F1E680239B029C46E02361
:10C940005246DB00D25835490A405146CA50CA58AF
:10C9500061460A435146CA5043460133DBB298460A
:10C96000DCE6032900D0DEE6674604AAD75D1F4354
:10C97000BA4667465146D155B9E6032900D04BE780
:10C98000674604AAD75D1F43BA4667465146D1554C
:10C9900027E7032900D003E7674604AAD75D1F43B2
:10C9A000BA4667465146D155DEE65A46032A00D0BC
:10C9B0007AE6674604AAD75D1F43B84667464146F4
:10C9C000D15550E65B46032B00D062E680239B02E4
:10C9D0009C46E0234246DB00D25810490A404146BB
:10C9E000CA50CA5861460A434146CA500123984674
:10C9F00051E6C0239B029C46EBE7C0239B029C466A
:10CA00009DE7C0239B029C467DE7C0239B029C467A
:10CA10005AE7C04600600040181A0020FFFFFCFFE4
:10CA2000C12330B55E4A9B00D35885B09B0559D5CC
:10CA300092235B00D158002954D00021D15081218C
:10CA4000E533FF338900D150564B997E002901D13F
:10CA500001315160022269460A7090215048C90094
:10CA60004258425069460392DA7D68460A72DA6893
:10CA700001920022DA751A760ACB98478E21484A2D
:10CA800049005358002B0FD0464B9C8A9D7DAC42E9
:10CA900062D200205050998A9868405C998A01318E
:10CAA00089B29982404BD050A2233D4A5B00D158B5
:10CAB000002915D00021D1503A4B997E002901D090
:10CAC00001211160DA7D002A0AD000226846012186
:10CAD000DA755A7E01700272DA680ACB01929847C1
:10CAE00005B030BDC1232E4A9B00D3585B07C5D586
:10CAF000842149005358002BC0D02A4BD87D0028F0
:10CB000038D000205050A320C000597E1258D86859
:10CB100042545A7ED87D0132D2B25A765A7E82422F
:10CB2000ACD11A7E002A2AD19A7E002A02D1012194
:10CB30001B4A5160C222812019499200800088500E
:10CB4000002268460121DA755A7E01700272DA68A5
:10CB50000ACB0192984791E700205050002DA3D0B6
:10CB60006A46107015729A689875019268460ACBE9
:10CB7000984799E75050A321C9005258CEE7DA757B
:10CB80001A69D968DA6000226C46587E1A765A769D
:10CB9000013220722270684601910ACB98476DE7F6
:10CBA00000200040601A00201C05000010B5022083
:10CBB000FFF76CFA10BDC04670B5814D04002B78AC
:10CBC000002B06D1172C00D9F7E07E4AA300D358DA
:10CBD0009F4600232B70FFF749FAF3E77A4E3000A7
:10CBE000FFF7B0F911230500181BA34200D1E0E0C4
:10CBF000002D00D0DDE001280CD0B733642158436C
:10CC000000F0CCFE714B0022196841433000FFF761
:10CC100039F905000220FFF719FA0BE00123012082
:10CC20002B70FFF733FA694B002219686848FFF749
:10CC300029F90500280070BD012301202B70FFF7A2
:10CC400025FA624B00221B6861489900C918FFF75A
:10CC500019F90500EEE7FFF711FA5E4B00251C708D
:10CC6000E8E70020FFF7E8F9002800D096E0002070
:10CC7000FFF7ECF9A11E4B42594101234942994368
:10CC80000431544B1C70514B1B6872E00020FFF7BD
:10CC9000D3F900287ED10020FFF7D8F905224D4BAB
:10CCA0004B481A70494B002219684900FFF7EAF80F
:10CCB0000500BFE70020FFF7BFF9002865D100207D
:10CCC000FFF7C4F902230321424A4FE0FFF7D6F9E8
:10CCD0000C22404B00251A70ACE7FFF7C7F9002281
:10CCE0003C4B00251A70A5E7FFF7C0F91222394B1B
:10CCF00000251A709EE7FFF7B9F90020FFF7A6F9A3
:10CD00001322344B00251A7094E7FFF7AFF9012086
:10CD1000FFF79CF914222F4B00251A708AE7FFF7C2
:10CD2000A5F90020FFF792F90120FFF78FF91522EE
:10CD3000284B00251A707DE70020FFF7A7F906228F
:10CD4000244B1A706FE70020FFF780F90722214B70
:10CD500000251A706EE70020FFF76EF900280FD14A
:10CD60000020FFF773F9042304211A4A1170174AAF
:10CD70001168002259431648FFF784F8050059E767
:10CD80000020FFF76BF92823EEE70020FFF766F994
:10CD9000082398E70020FFF761F97FE70020FFF7FD
:10CDA0005DF9A11E4B42594115234942994328314F
:10CDB00067E70220FFF752F93CE700253AE7C04653
:10CDC000D41A002078DB0100801A0020A01A00206D
:10CDD000D81A0020FC1A0020F8B5CE46474680B588
:10CDE00006000D00FFF772F90400032805D8012D95
:10CDF00014D0022D2AD0002D03D0C0BCB946B046B5
:10CE0000F8BD1D48FFF79EF81C4B620012199B18D5
:10CE10009D781B4B1B5DAB42EFD10EE0174F4300DB
:10CE200098461B18FD5CFB185B78002B14D1434619
:10CE30001B19FF18BA78124B1A55002DDDD0114B73
:10CE40001B68002BD9D028009847D6E7400000196E
:10CE50000A4C24186578F0E70B4B074899460B4BB2
:10CE60004A461B689900C9184900FFF70BF80028CB
:10CE7000DDD14B461E70DAE7A41A0020C41A002048
:10CE8000001B0020F81A00207C1A0020A01A0020A5
:10CE900010B5054B1B68DB0700D410BD034B187899
:10CEA000FFF78AFEF9E7C046D01A0020FC1A0020DE
:10CEB00010B50078FFF70AF903280BD843001B18B8
:10CEC0000548C0184078002804D0044B1B68002B8C
:10CED00000D0984710BDC046C41A0020F81A0020A0
:10CEE00010B5064A01231268110019401A4201D1F7
:10CEF000080010BDFFF760FE0100F9E7D01A00201E
:10CF0000214B70B51960214B05001860204B1A6049
:10CF1000830713D50E221F4B1F481A700132DA7097
:10CF200001329A7101325A724A080421FEF762FBFB
:10CF3000041E16D0EB0723D4200070BDC3070DD408
:10CF40000021164A1648FEF787FF041EF4D101217E
:10CF5000144A1548FEF780FF0400EDE7FFF7AAF832
:10CF6000EEE7FEF7A1FB041EE4D100210F4A1048B2
:10CF7000FEF772FF0400EB0702D4002CDCD1DFE7E0
:10CF8000FFF798F8F9E7C046A01A0020D01A002051
:10CF9000F81A0020C41A0020D8DB010091CE01004D
:10CFA00000DC0100ADCB0100F8DB0100B1CE0100D7
:10CFB000FCDB010073DF704748DF704710B50023CA
:10CFC00094B005210020374AFEF7B2FE002854D164
:10CFD000002201203449FFF793FF00285FD1334B33
:10CFE00048221B6832490193029302A8002300F0F3
:10CFF00049FC002850D10021002005AA00F0A8FC1F
:10D00000002846D105A800F0BBFC00283ED15923DA
:10D0100002AA1380274B00210493172305A89380AD
:10D020003C22FEF727F9002302AA13730433D373BB
:10D03000002105A80E9200F0D3FA002823D11E4C3F
:10D04000182200212000FEF715F903232370002386
:10D0500063602372A03320002361FFF7ABFF002839
:10D060000ED10220FFF73CFF002803D1FFF7A4FFF9
:10D070000028FBD0FEF730FBF8E7FEF72DFBA7E713
:10D08000FEF72AFBEDE7FEF727FBD8E7FEF724FBC8
:10D09000BDE7FEF721FBB5E7FEF71EFBABE7FEF7AA
:10D0A0001BFB9CE7041B0020CD0C000004DC0100EE
:10D0B0007C1B0020D4180020C41B002071DF7047A7
:10D0C00072DF704779DF70477DDF704765DF70473B
:10D0D000F0B5DE4657464E464546E0B587B09B461E
:10D0E00010AB914604CB07001B8890460193138830
:10D0F000029103930388002B00D16AE000239A4633
:10D1000004AB0025DE1C03E03B880135AB422EDD7D
:10D110007B68A9009C460422614405A800F0CAFC73
:10D120000022310005A8FFF7D1FF041E2CD133786F
:10D130004B45E9D15346002B2ED043461A884B4627
:10D140000199D3188B4246DC31005A4405A8FFF7F9
:10D15000BDFF00283BD142463378128801359B1829
:10D160004246138001239A463B88AB42D0DC5346AB
:10D17000002B2ED043461B88039A013B9B1A9BB27F
:10D18000FF2B28D859468B54200007B0F0BCBB4673
:10D19000B246A946A046F0BD43464A461B880199BF
:10D1A0009A1802328A4216DC424601339BB213803F
:10D1B0005A46029905A8D15443461A8831000132D3
:10D1C00092B21A805A44FFF781FF0028C3D00400AE
:10D1D000DAE70024D8E70C24D6E7C046F0B54E467F
:10D1E0004546DE465746E0B51388140099460023AD
:10D1F00013802D33C25C05000E00002385B0002A89
:10D2000000D0F8E0AA78002A00D0E9E0EA78002A05
:10D2100014D0D91C494500D9E5E00221F1542388F6
:10D22000013901339BB22380F154238801339BB22F
:10D230002380F254238801339BB223806A68002A3A
:10D2400015D0D91C494500D9CDE002211278F154FE
:10D250002388083101339BB22380F154238852B2D2
:10D2600001339BB22380F2542388013323802B891E
:10D27000002B00D0E9E02B8A002B00D01FE12B8B84
:10D28000002B00D039E12B6A002B3FD02788BA1D34
:10D290004A4500D9A7E01A88052A00D88FE1A94994
:10D2A000A948511889B28046814200D887E159883F
:10D2B000052900D883E1A34884468C44604680B2A7
:10D2C000404500D87BE1A148824202D08A4200D981
:10D2D00075E105221221F2552288013292B2228094
:10D2E000B1542288013292B222801988B21811708A
:10D2F000090A51702288023292B222805988B218EB
:10D300001170090A51702388023323806F6A002F3D
:10D310002BD0BA882088911C831C5B184B4562D89F
:10D32000FE2960D803323254FF22238801339BB296
:10D330002380F254238801339BB223803A88F31868
:10D340001A70120A5A702088023080B22080BA887F
:10D35000002A0AD0B968002900D130E1301800F065
:10D36000A9FB2388BA889B1823802C23EB5C002B15
:10D3700000D0DDE02A780020002A35D02B88012B50
:10D3800000D11CE12188881C48452CD8012A04D1F1
:10D390006B7802335B18994525D34B46023B5B1AE9
:10D3A0009FB26B4630181F8102A9FFF78DFE00283F
:10D3B0001AD12B78022B00D10AE1012B00D100E118
:10D3C0000822FE2F0FD82388791CF15423880133BB
:10D3D0009BB22380F25423880133FB18238003E09F
:10D3E00004334B454ED90C2005B0F0BCBB46B246C9
:10D3F000A946A046F0BD4B46082BF4D902A8FFF77A
:10D400005DFE0028F0D10822092123886944F254E6
:10D410002388133201339BB22380F2542088153ABB
:10D42000013080B22080301800F044FB6A46238827
:10D43000127A06339BB22380002A00D00122F254D4
:10D44000238801339BB22380DCE62F004B4608374C
:10D45000019302223300022138000094FFF738FEC6
:10D460000028C1D14B461022019306213300380019
:10D470000094FFF72DFE0028B6D12B8A002B00D197
:10D48000FDE61CE002A8FFF71DFE0028ACD1032238
:10D490002388F2542388163201339BB22380F2543E
:10D4A0006A462388128901339BB22380F3181A70CD
:10D4B000120A5A70238802339BB22380A6E62F00FB
:10D4C0004B461037019302223300032138000094A9
:10D4D000FFF7FEFD002800D086E74B46102201939F
:10D4E0000721330038000094FFF7F2FD002800D038
:10D4F0007AE72B8B002B00D1C5E62F004B4618375F
:10D50000019302223300142138000094FFF7E0FD5C
:10D51000002800D068E74B46102201931521330004
:10D5200038000094FFF7D4FD002800D1ABE65BE79C
:10D53000AF6A002F43D00023984616339A4616331D
:10D540009B4632E07FF3FFFF7DF30000FFFF00000A
:10D5500022880333B3545246238801339BB223807D
:10D56000F254238801339BB223803A88F3181A704F
:10D57000120A5A702088023080B22080BA88002AAD
:10D5800009D0B96800291AD0301800F093FA23881E
:10D59000BA889B18238043460133DBB298465B462A
:10D5A000EB5C434500D8E5E6AF6A43465B00434485
:10D5B0009B00FF18BB889A1CFE2AC9D913E70720D5
:10D5C00012E76B789F4200D2FAE61F000822F8E6C5
:10D5D0006B461B899F4200D2F2E61F000922F0E64B
:10D5E00030B593B01F236A4604000D009380D380AA
:10D5F000002821D0C3785B0725D501AA02A9FFF72F
:10D60000EDFD002816D102AC002D18D0EB78002BD0
:10D6100019D16B4628009A1D0AA9FFF7DFFD0028E3
:10D6200008D16B469B790AAD6A46200011792A0021
:10D63000FFF746FD13B030BD9080002DE6D16B465C
:10D64000DD800023F0E70720F4E7C04603210A4805
:10D6500002680A430260094802680A4302600849F6
:10D66000084A094B9B1A03DD043BC858D050FBDC29
:10D6700000F012F8FDF776FD240500405405004047
:10D6800014DC010070180020F8180020FEE7FEE707
:10D69000FEE7FEE7FEE7FEE72D4B1B78012B00D0EF
:10D6A00070472C4B1B681B07FAD12B4AF0231268DA
:10D6B000110019401A4201D0102946D1274A126898
:10D6C0001A421FD0F022244B1B681340402B29D054
:10D6D000F022214B1B681340A02B01D0D02BDFD1AF
:10D6E000F0231E4A12681A42DAD11D4A1368012B30
:10D6F00004D01C4B13601368012BFCD1C0221A4BC1
:10D700001A60CDE7194B1A4A1A608022194B12028F
:10D710001A600F4B1B78012BC2D10E4B1B681B07E5
:10D72000D0D0BDE70D4B1B681342D1D18022C1235D
:10D730000121DB00D205D150054B1B78012BAFD165
:10D74000044B1B681B07C3D0AAE73029B6D0B9E742
:10D75000E00F00F0E40F00F0E80F00F0EC0F00F035
:10D7600000EC06407593000014EC064004050040F0
:10D77000DFFF07C0186C004052DF704710DF7047B2
:10D7800060DF704761DF704710B5FDF7B5FF10BD72
:10D79000F0B54646D6464F46C0B5324B324D984658
:10D7A0001B6882B05C425C412B78E4B2002B2DD127
:10D7B0002E4B01A899462E4EFFF7DEFF052837D0E5
:10D7C000002838D0FDF788FF002C28D100239A4686
:10D7D0002B78DCB2002B19D14B466A461B88376880
:10D7E0009380380001A9FFF7CDFF052814D0002849
:10D7F0002ED1434638001B6898475346002B0FD064
:10D8000001239A462B78DCB2002BE5D002B0E0BCB5
:10D81000BA46B146A846F0BD5346002BF6D10124C6
:10D820002B78002BF2D101A8FFF7A6FF0528C7D15E
:10D83000002CE5D0EAE70198FEF796FC0D4B1B683B
:10D84000002B01D001989847002CBFD00124E7E7B6
:10D85000FDF742FF5346002BD2D12B78002BE2D0AC
:10D86000D4E7C046E01B0020E91B0020DC1B0020A1
:10D87000F01B0020EC1B0020014B1878C0B2704751
:10D88000E81B002070B5002931D08C072FD101256D
:10D890001B4C21601B491C4C0A801C4A13602368E6
:10D8A0001D4208D080231A49E550FFF767FF002882
:10D8B00006D0256070BD1649FFF760FF0028F9D13A
:10D8C0000124144B1C70FEF761FCC5230E4A9B001B
:10D8D000D3589B0D1C420CD00F4B586800280AD01F
:10D8E00080221968D2030A4300201A60E2E7072069
:10D8F000E0E70A48DEE78023DB031360DAE7C0468F
:10D90000F01B0020DC1B002000E100E0E41B0020F5
:10D9100089D70100E81B0020FC190020022000002C
:10D9200010B5094B1B68002B06D09847002800D182
:10D9300010BDFDF7D1FEFBE7044B1B78002BF7D0A1
:10D94000FFF726FFF4E7C046E41B0020E81B002099
:10D9500070B5140005000E00142200212000FDF710
:10D9600089FC002301222361237B228093432373BC
:10D9700026726572002D01D00123A372002070BDB4
:10D9800000B5054B83B00193019B69460093FFF7F7
:10D99000F7FE019B03B000BD701800200022430871
:10D9A0008B4274D303098B425FD3030A8B4244D367
:10D9B000030B8B4228D3030C8B420DD3FF220902A9
:10D9C00012BA030C8B4202D31212090265D0030B68
:10D9D0008B4219D300E0090AC30B8B4201D3CB035E
:10D9E000C01A5241830B8B4201D38B03C01A5241A0
:10D9F000430B8B4201D34B03C01A5241030B8B42A2
:10DA000001D30B03C01A5241C30A8B4201D3CB028C
:10DA1000C01A5241830A8B4201D38B02C01A524171
:10DA2000430A8B4201D34B02C01A5241030A8B4274
:10DA300001D30B02C01A5241CDD2C3098B4201D38C
:10DA4000CB01C01A524183098B4201D38B01C01A0A
:10DA5000524143098B4201D34B01C01A5241030981
:10DA60008B4201D30B01C01A5241C3088B4201D330
:10DA7000CB00C01A524183088B4201D38B00C01ADD
:10DA8000524143088B4201D34B00C01A5241411A04
:10DA900000D20146524110467047FFE701B5002011
:10DAA00000F006F802BDC0460029F7D076E77047BF
:10DAB0007047C046F0B5C64600B50F2A41D90327C6
:10DAC0000D003E0005430C0003002E402F423DD1C7
:10DAD0001500103D2D09A8462D01AC468444276849
:10DAE0001D001F6067685F60A7689F60E76810346B
:10DAF000DF6010336545F2D145460F230C24013514
:10DB00002D01491913404519144222D08C59AC51AA
:10DB100004369C1B032CF9D8043B9B0801339B0063
:10DB2000ED18C91803231A40561E002A06D00023F8
:10DB3000CC5C1A00EC5401339642F9D180BCB84653
:10DB4000F0BD0500561E002AF1D1F7E70500561E6C
:10DB5000EDE71A00F6E7C046F8B5C046F8BC08BCC9
:10DB60009E467047F8B5C046F8BC08BC9E46704754
:10DB700074180020AC190020DACC010062CC01003E
:10DB800062CC0100B4CC010056CD01008CCC010068
:10DB900038CD010046CD01001CCC010038CC01007D
:10DBA0001CCC010038CC0100CCCC0100DCCB010046
:10DBB000DCCB0100DCCB0100DCCB0100DCCB0100C5
:10DBC000E8CC0100F6CC01000ACD01001ECD010019
:10DBD00056CC010056CC010005000300D9CD010050
:10DBE00006000300D9CD010007000300D9CD0100D4
:10DBF00008000300D9CD0100801A0020A41A0020DB
:0CDC0000D81A00200100000700000000FE
:08DC0C004CD5FF7F0100000070
:10DC14007418002000000000000000000000000054
:10DC240000000000000000000000000000000000F0
:10DC340000000000000000000000000000000000E0
:10DC440000000000000000000000000000000000D0
:10DC540000000000000000000000000000000000C0
:10DC640000000000000000000000000000000000B0
:10DC74000000000002150112233445566778899A82
:10DC8400ABBCCDDEEFF001020304C3000024F400BA
:08DC940035B1010009B10100E6
:040000031000D64DC6
:00000001FF
